{
  "contractName": "VanityNameRegistering",
  "abi": [
    {
      "inputs": [
        {
          "internalType": "uint256",
          "name": "TaxRate",
          "type": "uint256"
        },
        {
          "internalType": "uint256",
          "name": "TimeExpandRatio",
          "type": "uint256"
        }
      ],
      "stateMutability": "nonpayable",
      "type": "constructor"
    },
    {
      "anonymous": false,
      "inputs": [
        {
          "indexed": false,
          "internalType": "string",
          "name": "name",
          "type": "string"
        }
      ],
      "name": "NameExpired",
      "type": "event"
    },
    {
      "anonymous": false,
      "inputs": [
        {
          "indexed": false,
          "internalType": "string",
          "name": "name",
          "type": "string"
        },
        {
          "indexed": false,
          "internalType": "uint256",
          "name": "time",
          "type": "uint256"
        }
      ],
      "name": "NewNamedRegistered",
      "type": "event"
    },
    {
      "inputs": [
        {
          "internalType": "string",
          "name": "name",
          "type": "string"
        }
      ],
      "name": "RegisterName",
      "outputs": [],
      "stateMutability": "payable",
      "type": "function",
      "payable": true
    },
    {
      "inputs": [
        {
          "internalType": "string",
          "name": "name",
          "type": "string"
        }
      ],
      "name": "isExpired",
      "outputs": [
        {
          "internalType": "bool",
          "name": "expired",
          "type": "bool"
        }
      ],
      "stateMutability": "nonpayable",
      "type": "function"
    },
    {
      "inputs": [
        {
          "internalType": "string",
          "name": "name",
          "type": "string"
        }
      ],
      "name": "getNameInfo",
      "outputs": [
        {
          "components": [
            {
              "internalType": "address",
              "name": "owner",
              "type": "address"
            },
            {
              "internalType": "uint256",
              "name": "bought",
              "type": "uint256"
            },
            {
              "internalType": "uint256",
              "name": "expiration",
              "type": "uint256"
            },
            {
              "internalType": "uint256",
              "name": "amount_locked",
              "type": "uint256"
            }
          ],
          "internalType": "struct VanityNameRegistering.Name",
          "name": "",
          "type": "tuple"
        }
      ],
      "stateMutability": "view",
      "type": "function",
      "constant": true
    },
    {
      "inputs": [
        {
          "internalType": "string",
          "name": "name",
          "type": "string"
        }
      ],
      "name": "extendTime",
      "outputs": [],
      "stateMutability": "payable",
      "type": "function",
      "payable": true
    }
  ],
  "bytecode": "0x608060405234801561001057600080fd5b50604051610f2b380380610f2b8339818101604052810190610032919061005c565b816000819055508060018190555050506100c2565b600081519050610056816100ab565b92915050565b60008060408385031215610073576100726100a6565b5b600061008185828601610047565b925050602061009285828601610047565b9150509250929050565b6000819050919050565b600080fd5b6100b48161009c565b81146100bf57600080fd5b50565b610e5a806100d16000396000f3fe60806040526004361061005c576000357c01000000000000000000000000000000000000000000000000000000009004806366ae36b714610061578063755fd0e91461009e578063a2273415146100ba578063c64fafbc146100d6575b600080fd5b34801561006d57600080fd5b5061008860048036038101906100839190610838565b610113565b6040516100959190610ac9565b60405180910390f35b6100b860048036038101906100b39190610838565b610203565b005b6100d460048036038101906100cf9190610838565b6104cf565b005b3480156100e257600080fd5b506100fd60048036038101906100f89190610838565b6105fb565b60405161010a91906109fc565b60405180910390f35b61011b61078a565b6000604051806080016040528060028560405161013891906109e5565b908152602001604051809103902060000160009054906101000a900473ffffffffffffffffffffffffffffffffffffffff1673ffffffffffffffffffffffffffffffffffffffff16815260200160028560405161019591906109e5565b90815260200160405180910390206001015481526020016002856040516101bc91906109e5565b90815260200160405180910390206002015481526020016002856040516101e391906109e5565b908152602001604051809103902060030154815250905080915050919050565b600060028260405161021591906109e5565b9081526020016040518091039020600101541480156102a15750600073ffffffffffffffffffffffffffffffffffffffff1660028260405161025791906109e5565b908152602001604051809103902060000160009054906101000a900473ffffffffffffffffffffffffffffffffffffffff1673ffffffffffffffffffffffffffffffffffffffff16145b8061031957503373ffffffffffffffffffffffffffffffffffffffff166002826040516102ce91906109e5565b908152602001604051809103902060000160009054906101000a900473ffffffffffffffffffffffffffffffffffffffff1673ffffffffffffffffffffffffffffffffffffffff1614155b610358576040517f08c379a000000000000000000000000000000000000000000000000000000000815260040161034f90610aa9565b60405180910390fd5b60006103638261075b565b9050600061037034610773565b90508134116103b4576040517f08c379a00000000000000000000000000000000000000000000000000000000081526004016103ab90610a89565b60405180910390fd5b336002846040516103c591906109e5565b908152602001604051809103902060000160006101000a81548173ffffffffffffffffffffffffffffffffffffffff021916908373ffffffffffffffffffffffffffffffffffffffff1602179055504260028460405161042591906109e5565b9081526020016040518091039020600101819055508060028460405161044b91906109e5565b908152602001604051809103902060020181905550813461046c9190610c11565b60028460405161047c91906109e5565b9081526020016040518091039020600301819055507f08934ccc38b1e0eb4cadba7b92adb42da19acb353d51af8ccfd84b329b6ff02c83426040516104c2929190610a39565b60405180910390a1505050565b803373ffffffffffffffffffffffffffffffffffffffff166002826040516104f791906109e5565b908152602001604051809103902060000160009054906101000a900473ffffffffffffffffffffffffffffffffffffffff1673ffffffffffffffffffffffffffffffffffffffff161461057f576040517f08c379a000000000000000000000000000000000000000000000000000000000815260040161057690610a69565b60405180910390fd5b61058834610773565b60028360405161059891906109e5565b908152602001604051809103902060020160008282546105b89190610b61565b92505081905550346002836040516105d091906109e5565b908152602001604051809103902060030160008282546105f09190610b61565b925050819055505050565b60008060028360405161060e91906109e5565b9081526020016040518091039020905080600201544282600101546106339190610b61565b1061075057600081600301549050600082600301819055508160000160009054906101000a900473ffffffffffffffffffffffffffffffffffffffff1673ffffffffffffffffffffffffffffffffffffffff166108fc829081150290604051600060405180830381858888f193505050501580156106b5573d6000803e3d6000fd5b5060008260000160006101000a81548173ffffffffffffffffffffffffffffffffffffffff021916908373ffffffffffffffffffffffffffffffffffffffff16021790555060008260010181905550600082600201819055507f407c156a731aeef315596f894ff321b1b1a53631f910354dc1f5e8af192545428460405161073d9190610a17565b60405180910390a1600192505050610756565b60009150505b919050565b6000815160005461076c9190610bb7565b9050919050565b6000600154826107839190610bb7565b9050919050565b6040518060800160405280600073ffffffffffffffffffffffffffffffffffffffff1681526020016000815260200160008152602001600081525090565b60006107db6107d684610b09565b610ae4565b9050828152602081018484840111156107f7576107f6610d63565b5b610802848285610c8d565b509392505050565b600082601f83011261081f5761081e610d5e565b5b813561082f8482602086016107c8565b91505092915050565b60006020828403121561084e5761084d610d6d565b5b600082013567ffffffffffffffff81111561086c5761086b610d68565b5b6108788482850161080a565b91505092915050565b61088a81610c45565b82525050565b61089981610c57565b82525050565b60006108aa82610b3a565b6108b48185610b45565b93506108c4818560208601610c9c565b6108cd81610d72565b840191505092915050565b60006108e382610b3a565b6108ed8185610b56565b93506108fd818560208601610c9c565b80840191505092915050565b6000610916602183610b45565b915061092182610d83565b604082019050919050565b6000610939601b83610b45565b915061094482610dd2565b602082019050919050565b600061095c601b83610b45565b915061096782610dfb565b602082019050919050565b6080820160008201516109886000850182610881565b50602082015161099b60208501826109c7565b5060408201516109ae60408501826109c7565b5060608201516109c160608501826109c7565b50505050565b6109d081610c83565b82525050565b6109df81610c83565b82525050565b60006109f182846108d8565b915081905092915050565b6000602082019050610a116000830184610890565b92915050565b60006020820190508181036000830152610a31818461089f565b905092915050565b60006040820190508181036000830152610a53818561089f565b9050610a6260208301846109d6565b9392505050565b60006020820190508181036000830152610a8281610909565b9050919050565b60006020820190508181036000830152610aa28161092c565b9050919050565b60006020820190508181036000830152610ac28161094f565b9050919050565b6000608082019050610ade6000830184610972565b92915050565b6000610aee610aff565b9050610afa8282610ccf565b919050565b6000604051905090565b600067ffffffffffffffff821115610b2457610b23610d2f565b5b610b2d82610d72565b9050602081019050919050565b600081519050919050565b600082825260208201905092915050565b600081905092915050565b6000610b6c82610c83565b9150610b7783610c83565b9250827fffffffffffffffffffffffffffffffffffffffffffffffffffffffffffffffff03821115610bac57610bab610d00565b5b828201905092915050565b6000610bc282610c83565b9150610bcd83610c83565b9250817fffffffffffffffffffffffffffffffffffffffffffffffffffffffffffffffff0483118215151615610c0657610c05610d00565b5b828202905092915050565b6000610c1c82610c83565b9150610c2783610c83565b925082821015610c3a57610c39610d00565b5b828203905092915050565b6000610c5082610c63565b9050919050565b60008115159050919050565b600073ffffffffffffffffffffffffffffffffffffffff82169050919050565b6000819050919050565b82818337600083830152505050565b60005b83811015610cba578082015181840152602081019050610c9f565b83811115610cc9576000848401525b50505050565b610cd882610d72565b810181811067ffffffffffffffff82111715610cf757610cf6610d2f565b5b80604052505050565b7f4e487b7100000000000000000000000000000000000000000000000000000000600052601160045260246000fd5b7f4e487b7100000000000000000000000000000000000000000000000000000000600052604160045260246000fd5b600080fd5b600080fd5b600080fd5b600080fd5b6000601f19601f8301169050919050565b7f4572726f723a20796f75206172656e277420746865206e616d65206f776e657260008201527f2e00000000000000000000000000000000000000000000000000000000000000602082015250565b7f4572726f723a20696e73756666696369656e7420666f756e64732e0000000000600082015250565b7f4572726f723a206e616d6520616c726561647920696e207573652e000000000060008201525056fea2646970667358221220421acfd8139da287bdbbbad18e5456df07959f6fcd9f20d067cb798ad137fd4e64736f6c63430008070033",
  "immutableReferences": {},
  "source": "//SPDX-License-Identifier:UNLICENSED\r\npragma solidity ^ 0.8.7;\r\n\r\ncontract VanityNameRegistering {\r\n\r\n    // the listing price of buy a name\r\n    uint fee;\r\n    // the time cost of each \r\n    uint time_expand_ratio;\r\n    constructor (uint TaxRate, uint TimeExpandRatio) {\r\n        fee = TaxRate; // taxrate in wei\r\n        time_expand_ratio = TimeExpandRatio; // suggest: in seconds\r\n    }\r\n\r\n    // struct name for each registered name\r\n    struct Name {\r\n        // to see owner\r\n        address owner;\r\n        // the time where name bought\r\n        uint bought;\r\n        // time to expiration , it depends on uint time algorithm which is based in msg.value amount, higher amount, higher time ownership.\r\n        uint expiration;\r\n        // amount was locked for the user, once the expiration is ready , the user can unlock his founds.\r\n        uint amount_locked;\r\n    }\r\n    \r\n    event NewNamedRegistered(string name, uint time); // events to emit\r\n    event NameExpired(string name);\r\n\r\n    // a mapping to set every name to his Name Struct\r\n    mapping(string => Name) VanityNames;\r\n\r\n    // register a name that wasn't already registered.\r\n    function RegisterName(string memory name) public payable {\r\n        // if the name.bought == 0 it means that nobody bought this\r\n        // a logical conjunction, if owner is equal to default initial address value it means the name is available\r\n        // or the name.owner should be different to msg.sender\r\n        require((VanityNames[name].bought == 0 && VanityNames[name].owner == address(0)) || VanityNames[name].owner != msg.sender, \"Error: name already in use.\");\r\n        // listingFee according to the size of name, well this is a simple algorithm\r\n        // for every character in the name it is multiply by a tax rate \r\n        // of course this tax rate is customizable.\r\n        uint listingFee = calculateCostOfName(bytes(name));\r\n        // the time of the name is in ownership according the money amount that the sender sent.\r\n        // again, a simple algorithm => for every 1 wei sent the ownership of the name extends X second (customizable)\r\n        uint time = calculateTimeOwnership(msg.value);\r\n        // well, the msg.value needs to be greater than listingFee , the rest of wei sent would go to the time of ownership.\r\n        require(msg.value > listingFee, \"Error: insufficient founds.\");\r\n        // set the data\r\n        VanityNames[name].owner = msg.sender;\r\n        VanityNames[name].bought = block.timestamp;\r\n        VanityNames[name].expiration = time;\r\n        // msg.value - listingFee because the listingFee isn't added to the amount locked by the user.\r\n        VanityNames[name].amount_locked = msg.value - listingFee;\r\n\r\n        emit NewNamedRegistered(name, block.timestamp);\r\n    }\r\n\r\n    // function to see if the name is expired or not, it returns a bool to frontend interaction.\r\n    function isExpired(string memory name) public returns(bool expired) {\r\n        // setting a pointer storage to the mapping name\r\n        Name storage nameRegistered = VanityNames[name];\r\n        // if the time what was name bought + now is greater or equal to the expiration it means the name ownerships is down.\r\n        if ((nameRegistered.bought + block.timestamp) >= nameRegistered.expiration) {\r\n            // prevent reentrancy attacks set the amount to a uint variable recently created and after set amount to 0\r\n            uint amount = nameRegistered.amount_locked;\r\n            nameRegistered.amount_locked = 0;\r\n            // unlocking founds for the owner of the name\r\n            payable(nameRegistered.owner).transfer(amount);\r\n            // set all data to default values, because the previous owner was deleted.\r\n            nameRegistered.owner = address(0);\r\n            nameRegistered.bought = 0;\r\n            nameRegistered.expiration = 0;\r\n            // returning true, is expired.\r\n            emit NameExpired(name);\r\n            return true;    \r\n        } else { return false; } // returning false, isn't expired yet\r\n\r\n    }\r\n    \r\n    // a simple function which returns a Name struct in memory to get name info (owner, etc...)\r\n    function getNameInfo(string memory name) public view returns (Name memory) {\r\n\r\n        Name memory gettingNameInfo = Name(VanityNames[name].owner, VanityNames[name].bought, VanityNames[name].expiration, VanityNames[name].amount_locked);\r\n        return gettingNameInfo;\r\n    }  \r\n\r\n    // a simple algorithm to determinate the cost of the name based in it's length\r\n    function calculateCostOfName(bytes memory name) private view returns (uint) {\r\n        return (fee * name.length);\r\n    }\r\n\r\n    // a simple algorithm to determinate the time of ownership\r\n    function calculateTimeOwnership(uint msg_value) private view returns(uint) {\r\n        return msg_value * time_expand_ratio;\r\n    }\r\n\r\n    // ---------- OPTIONAL FEATURES -> EXTEND THE TIME OF OWNERSHIP\r\n    function extendTime(string memory name) public payable onlyOwner(name) {\r\n        VanityNames[name].expiration += calculateTimeOwnership(msg.value);\r\n        VanityNames[name].amount_locked += msg.value;\r\n    }\r\n\r\n    modifier onlyOwner(string memory name) {\r\n        require(VanityNames[name].owner == msg.sender, \"Error: you aren't the name owner.\");\r\n        _;\r\n    }\r\n\r\n}",
  "sourcePath": "C:\\Users\\Pavon\\Documents\\GitHub\\test-fiver\\test\\contracts\\test.sol",
  "compiler": {
    "name": "solc",
    "version": "0.8.7+commit.e28d00a7.Emscripten.clang"
  },
  "schemaVersion": "3.4.4",
  "updatedAt": "2022-02-26T21:43:34.132Z",
  "networkType": "ethereum",
  "devdoc": {
    "kind": "dev",
    "methods": {},
    "version": 1
  },
  "userdoc": {
    "kind": "user",
    "methods": {},
    "version": 1
  }
}